{
  "_format": "hh-sol-artifact-1",
  "contractName": "GovernorAlpha",
  "sourceName": "contracts/GovernorAlpha.sol",
  "abi": [
    {
      "inputs": [
        {
          "internalType": "address",
          "name": "timelock_",
          "type": "address"
        },
        {
          "internalType": "address",
          "name": "uni_",
          "type": "address"
        }
      ],
      "payable": false,
      "stateMutability": "nonpayable",
      "type": "constructor"
    },
    {
      "anonymous": false,
      "inputs": [
        {
          "indexed": false,
          "internalType": "uint256",
          "name": "id",
          "type": "uint256"
        }
      ],
      "name": "ProposalCanceled",
      "type": "event"
    },
    {
      "anonymous": false,
      "inputs": [
        {
          "indexed": false,
          "internalType": "uint256",
          "name": "id",
          "type": "uint256"
        },
        {
          "indexed": false,
          "internalType": "address",
          "name": "proposer",
          "type": "address"
        },
        {
          "indexed": false,
          "internalType": "address[]",
          "name": "targets",
          "type": "address[]"
        },
        {
          "indexed": false,
          "internalType": "uint256[]",
          "name": "values",
          "type": "uint256[]"
        },
        {
          "indexed": false,
          "internalType": "string[]",
          "name": "signatures",
          "type": "string[]"
        },
        {
          "indexed": false,
          "internalType": "bytes[]",
          "name": "calldatas",
          "type": "bytes[]"
        },
        {
          "indexed": false,
          "internalType": "uint256",
          "name": "startBlock",
          "type": "uint256"
        },
        {
          "indexed": false,
          "internalType": "uint256",
          "name": "endBlock",
          "type": "uint256"
        },
        {
          "indexed": false,
          "internalType": "string",
          "name": "description",
          "type": "string"
        }
      ],
      "name": "ProposalCreated",
      "type": "event"
    },
    {
      "anonymous": false,
      "inputs": [
        {
          "indexed": false,
          "internalType": "uint256",
          "name": "id",
          "type": "uint256"
        }
      ],
      "name": "ProposalExecuted",
      "type": "event"
    },
    {
      "anonymous": false,
      "inputs": [
        {
          "indexed": false,
          "internalType": "uint256",
          "name": "id",
          "type": "uint256"
        },
        {
          "indexed": false,
          "internalType": "uint256",
          "name": "eta",
          "type": "uint256"
        }
      ],
      "name": "ProposalQueued",
      "type": "event"
    },
    {
      "anonymous": false,
      "inputs": [
        {
          "indexed": false,
          "internalType": "uint256",
          "name": "a",
          "type": "uint256"
        },
        {
          "indexed": false,
          "internalType": "uint256",
          "name": "b",
          "type": "uint256"
        },
        {
          "indexed": false,
          "internalType": "address",
          "name": "c",
          "type": "address"
        }
      ],
      "name": "ProposeDebugEvent",
      "type": "event"
    },
    {
      "anonymous": false,
      "inputs": [
        {
          "indexed": false,
          "internalType": "address",
          "name": "voter",
          "type": "address"
        },
        {
          "indexed": false,
          "internalType": "uint256",
          "name": "proposalId",
          "type": "uint256"
        },
        {
          "indexed": false,
          "internalType": "bool",
          "name": "support",
          "type": "bool"
        },
        {
          "indexed": false,
          "internalType": "uint256",
          "name": "votes",
          "type": "uint256"
        }
      ],
      "name": "VoteCast",
      "type": "event"
    },
    {
      "constant": true,
      "inputs": [],
      "name": "BALLOT_TYPEHASH",
      "outputs": [
        {
          "internalType": "bytes32",
          "name": "",
          "type": "bytes32"
        }
      ],
      "payable": false,
      "stateMutability": "view",
      "type": "function"
    },
    {
      "constant": true,
      "inputs": [],
      "name": "DOMAIN_TYPEHASH",
      "outputs": [
        {
          "internalType": "bytes32",
          "name": "",
          "type": "bytes32"
        }
      ],
      "payable": false,
      "stateMutability": "view",
      "type": "function"
    },
    {
      "constant": false,
      "inputs": [
        {
          "internalType": "uint256",
          "name": "proposalId",
          "type": "uint256"
        }
      ],
      "name": "cancel",
      "outputs": [],
      "payable": false,
      "stateMutability": "nonpayable",
      "type": "function"
    },
    {
      "constant": false,
      "inputs": [
        {
          "internalType": "uint256",
          "name": "proposalId",
          "type": "uint256"
        },
        {
          "internalType": "bool",
          "name": "support",
          "type": "bool"
        }
      ],
      "name": "castVote",
      "outputs": [],
      "payable": false,
      "stateMutability": "nonpayable",
      "type": "function"
    },
    {
      "constant": false,
      "inputs": [
        {
          "internalType": "uint256",
          "name": "proposalId",
          "type": "uint256"
        },
        {
          "internalType": "bool",
          "name": "support",
          "type": "bool"
        },
        {
          "internalType": "uint8",
          "name": "v",
          "type": "uint8"
        },
        {
          "internalType": "bytes32",
          "name": "r",
          "type": "bytes32"
        },
        {
          "internalType": "bytes32",
          "name": "s",
          "type": "bytes32"
        }
      ],
      "name": "castVoteBySig",
      "outputs": [],
      "payable": false,
      "stateMutability": "nonpayable",
      "type": "function"
    },
    {
      "constant": false,
      "inputs": [
        {
          "internalType": "uint256",
          "name": "proposalId",
          "type": "uint256"
        }
      ],
      "name": "execute",
      "outputs": [],
      "payable": true,
      "stateMutability": "payable",
      "type": "function"
    },
    {
      "constant": true,
      "inputs": [
        {
          "internalType": "uint256",
          "name": "proposalId",
          "type": "uint256"
        }
      ],
      "name": "getActions",
      "outputs": [
        {
          "internalType": "address[]",
          "name": "targets",
          "type": "address[]"
        },
        {
          "internalType": "uint256[]",
          "name": "values",
          "type": "uint256[]"
        },
        {
          "internalType": "string[]",
          "name": "signatures",
          "type": "string[]"
        },
        {
          "internalType": "bytes[]",
          "name": "calldatas",
          "type": "bytes[]"
        }
      ],
      "payable": false,
      "stateMutability": "view",
      "type": "function"
    },
    {
      "constant": true,
      "inputs": [],
      "name": "getBlockNumber",
      "outputs": [
        {
          "internalType": "uint256",
          "name": "",
          "type": "uint256"
        }
      ],
      "payable": false,
      "stateMutability": "view",
      "type": "function"
    },
    {
      "constant": true,
      "inputs": [],
      "name": "getMsgSender",
      "outputs": [
        {
          "internalType": "address",
          "name": "",
          "type": "address"
        }
      ],
      "payable": false,
      "stateMutability": "view",
      "type": "function"
    },
    {
      "constant": true,
      "inputs": [],
      "name": "getPriorVotes",
      "outputs": [
        {
          "internalType": "uint256",
          "name": "",
          "type": "uint256"
        }
      ],
      "payable": false,
      "stateMutability": "view",
      "type": "function"
    },
    {
      "constant": true,
      "inputs": [
        {
          "internalType": "uint256",
          "name": "proposalId",
          "type": "uint256"
        },
        {
          "internalType": "address",
          "name": "voter",
          "type": "address"
        }
      ],
      "name": "getReceipt",
      "outputs": [
        {
          "components": [
            {
              "internalType": "bool",
              "name": "hasVoted",
              "type": "bool"
            },
            {
              "internalType": "bool",
              "name": "support",
              "type": "bool"
            },
            {
              "internalType": "uint96",
              "name": "votes",
              "type": "uint96"
            }
          ],
          "internalType": "struct GovernorAlpha.Receipt",
          "name": "",
          "type": "tuple"
        }
      ],
      "payable": false,
      "stateMutability": "view",
      "type": "function"
    },
    {
      "constant": true,
      "inputs": [
        {
          "internalType": "address",
          "name": "",
          "type": "address"
        }
      ],
      "name": "latestProposalIds",
      "outputs": [
        {
          "internalType": "uint256",
          "name": "",
          "type": "uint256"
        }
      ],
      "payable": false,
      "stateMutability": "view",
      "type": "function"
    },
    {
      "constant": true,
      "inputs": [],
      "name": "name",
      "outputs": [
        {
          "internalType": "string",
          "name": "",
          "type": "string"
        }
      ],
      "payable": false,
      "stateMutability": "view",
      "type": "function"
    },
    {
      "constant": true,
      "inputs": [],
      "name": "proposalCount",
      "outputs": [
        {
          "internalType": "uint256",
          "name": "",
          "type": "uint256"
        }
      ],
      "payable": false,
      "stateMutability": "view",
      "type": "function"
    },
    {
      "constant": true,
      "inputs": [],
      "name": "proposalMaxOperations",
      "outputs": [
        {
          "internalType": "uint256",
          "name": "",
          "type": "uint256"
        }
      ],
      "payable": false,
      "stateMutability": "pure",
      "type": "function"
    },
    {
      "constant": true,
      "inputs": [],
      "name": "proposalThreshold",
      "outputs": [
        {
          "internalType": "uint256",
          "name": "",
          "type": "uint256"
        }
      ],
      "payable": false,
      "stateMutability": "pure",
      "type": "function"
    },
    {
      "constant": true,
      "inputs": [
        {
          "internalType": "uint256",
          "name": "",
          "type": "uint256"
        }
      ],
      "name": "proposals",
      "outputs": [
        {
          "internalType": "uint256",
          "name": "id",
          "type": "uint256"
        },
        {
          "internalType": "address",
          "name": "proposer",
          "type": "address"
        },
        {
          "internalType": "uint256",
          "name": "eta",
          "type": "uint256"
        },
        {
          "internalType": "uint256",
          "name": "startBlock",
          "type": "uint256"
        },
        {
          "internalType": "uint256",
          "name": "endBlock",
          "type": "uint256"
        },
        {
          "internalType": "uint256",
          "name": "forVotes",
          "type": "uint256"
        },
        {
          "internalType": "uint256",
          "name": "againstVotes",
          "type": "uint256"
        },
        {
          "internalType": "bool",
          "name": "canceled",
          "type": "bool"
        },
        {
          "internalType": "bool",
          "name": "executed",
          "type": "bool"
        }
      ],
      "payable": false,
      "stateMutability": "view",
      "type": "function"
    },
    {
      "constant": false,
      "inputs": [
        {
          "internalType": "address[]",
          "name": "targets",
          "type": "address[]"
        },
        {
          "internalType": "uint256[]",
          "name": "values",
          "type": "uint256[]"
        },
        {
          "internalType": "string[]",
          "name": "signatures",
          "type": "string[]"
        },
        {
          "internalType": "bytes[]",
          "name": "calldatas",
          "type": "bytes[]"
        },
        {
          "internalType": "string",
          "name": "description",
          "type": "string"
        }
      ],
      "name": "propose",
      "outputs": [
        {
          "internalType": "uint256",
          "name": "",
          "type": "uint256"
        }
      ],
      "payable": false,
      "stateMutability": "nonpayable",
      "type": "function"
    },
    {
      "constant": false,
      "inputs": [
        {
          "internalType": "uint256",
          "name": "proposalId",
          "type": "uint256"
        }
      ],
      "name": "queue",
      "outputs": [],
      "payable": false,
      "stateMutability": "nonpayable",
      "type": "function"
    },
    {
      "constant": true,
      "inputs": [],
      "name": "quorumVotes",
      "outputs": [
        {
          "internalType": "uint256",
          "name": "",
          "type": "uint256"
        }
      ],
      "payable": false,
      "stateMutability": "pure",
      "type": "function"
    },
    {
      "constant": true,
      "inputs": [
        {
          "internalType": "uint256",
          "name": "proposalId",
          "type": "uint256"
        }
      ],
      "name": "state",
      "outputs": [
        {
          "internalType": "enum GovernorAlpha.ProposalState",
          "name": "",
          "type": "uint8"
        }
      ],
      "payable": false,
      "stateMutability": "view",
      "type": "function"
    },
    {
      "constant": true,
      "inputs": [],
      "name": "timelock",
      "outputs": [
        {
          "internalType": "contract TimelockInterface",
          "name": "",
          "type": "address"
        }
      ],
      "payable": false,
      "stateMutability": "view",
      "type": "function"
    },
    {
      "constant": true,
      "inputs": [],
      "name": "uni",
      "outputs": [
        {
          "internalType": "contract UniInterface",
          "name": "",
          "type": "address"
        }
      ],
      "payable": false,
      "stateMutability": "view",
      "type": "function"
    },
    {
      "constant": true,
      "inputs": [],
      "name": "votingDelay",
      "outputs": [
        {
          "internalType": "uint256",
          "name": "",
          "type": "uint256"
        }
      ],
      "payable": false,
      "stateMutability": "pure",
      "type": "function"
    },
    {
      "constant": true,
      "inputs": [],
      "name": "votingPeriod",
      "outputs": [
        {
          "internalType": "uint256",
          "name": "",
          "type": "uint256"
        }
      ],
      "payable": false,
      "stateMutability": "pure",
      "type": "function"
    }
  ],
  "bytecode": "0x60806040523480156200001157600080fd5b5060405162004d1638038062004d168339818101604052620000379190810190620000d7565b816000806101000a81548173ffffffffffffffffffffffffffffffffffffffff021916908373ffffffffffffffffffffffffffffffffffffffff16021790555080600160006101000a81548173ffffffffffffffffffffffffffffffffffffffff021916908373ffffffffffffffffffffffffffffffffffffffff160217905550505062000166565b600081519050620000d1816200014c565b92915050565b60008060408385031215620000eb57600080fd5b6000620000fb85828601620000c0565b92505060206200010e85828601620000c0565b9150509250929050565b600062000125826200012c565b9050919050565b600073ffffffffffffffffffffffffffffffffffffffff82169050919050565b620001578162000118565b81146200016357600080fd5b50565b614ba080620001766000396000f3fe6080604052600436106101665760003560e01c80634634c61f116100d1578063da35c6641161008a578063deaaa7cc11610064578063deaaa7cc1461054f578063e23a9a521461057a578063edc9af95146105b7578063fe0d94c1146105e257610166565b8063da35c664146104be578063da95691a146104e9578063ddf0b0091461052657610166565b80634634c61f146103be5780635fc35fd0146103e75780637a6ce2e1146104125780637bdbe4d01461043d578063b58131b014610468578063d33219b41461049357610166565b806324bc1a641161012357806324bc1a6414610297578063328dd982146102c25780633932abb1146103025780633e4f49e61461032d57806340e58ee51461036a57806342cbb15c1461039357610166565b8063013cf08b1461016b57806302a251a3146101b057806306fdde03146101db57806315373e3d1461020657806317977c611461022f57806320606b701461026c575b600080fd5b34801561017757600080fd5b50610192600480360361018d9190810190612f3b565b6105fe565b6040516101a79998979695949392919061454a565b60405180910390f35b3480156101bc57600080fd5b506101c5610686565b6040516101d2919061447f565b60405180910390f35b3480156101e757600080fd5b506101f0610690565b6040516101fd9190614222565b60405180910390f35b34801561021257600080fd5b5061022d60048036036102289190810190612fc9565b6106c9565b005b34801561023b57600080fd5b5061025660048036036102519190810190612d90565b6106d8565b604051610263919061447f565b60405180910390f35b34801561027857600080fd5b506102816106f0565b60405161028e91906140f5565b60405180910390f35b3480156102a357600080fd5b506102ac610707565b6040516102b9919061447f565b60405180910390f35b3480156102ce57600080fd5b506102e960048036036102e49190810190612f3b565b61071a565b6040516102f99493929190614094565b60405180910390f35b34801561030e57600080fd5b506103176109f7565b604051610324919061447f565b60405180910390f35b34801561033957600080fd5b50610354600480360361034f9190810190612f3b565b610a00565b6040516103619190614207565b60405180910390f35b34801561037657600080fd5b50610391600480360361038c9190810190612f3b565b610be4565b005b34801561039f57600080fd5b506103a8610f28565b6040516103b5919061447f565b60405180910390f35b3480156103ca57600080fd5b506103e560048036036103e09190810190613005565b610f3a565b005b3480156103f357600080fd5b506103fc611109565b604051610409919061447f565b60405180910390f35b34801561041e57600080fd5b506104276111d5565b6040516104349190613f20565b60405180910390f35b34801561044957600080fd5b506104526111dd565b60405161045f919061447f565b60405180910390f35b34801561047457600080fd5b5061047d6111e6565b60405161048a919061447f565b60405180910390f35b34801561049f57600080fd5b506104a86111f9565b6040516104b591906141d1565b60405180910390f35b3480156104ca57600080fd5b506104d361121e565b6040516104e0919061447f565b60405180910390f35b3480156104f557600080fd5b50610510600480360361050b9190810190612db9565b611224565b60405161051d919061447f565b60405180910390f35b34801561053257600080fd5b5061054d60048036036105489190810190612f3b565b6118e9565b005b34801561055b57600080fd5b50610564611c38565b60405161057191906140f5565b60405180910390f35b34801561058657600080fd5b506105a1600480360361059c9190810190612f8d565b611c4f565b6040516105ae9190614464565b60405180910390f35b3480156105c357600080fd5b506105cc611d31565b6040516105d991906141ec565b60405180910390f35b6105fc60048036036105f79190810190612f3b565b611d57565b005b60036020528060005260406000206000915090508060000154908060010160009054906101000a900473ffffffffffffffffffffffffffffffffffffffff169080600201549080600701549080600801549080600901549080600a01549080600b0160009054906101000a900460ff169080600b0160019054906101000a900460ff16905089565b6000619d80905090565b6040518060400160405280601681526020017f556e697377617020476f7665726e6f7220416c7068610000000000000000000081525081565b6106d4338383611fa4565b5050565b60046020528060005260406000206000915090505481565b6040516106fc90613ef6565b604051809103902081565b60006a2116545850052128000000905090565b606080606080600060036000878152602001908152602001600020905080600301816004018260050183600601838054806020026020016040519081016040528092919081815260200182805480156107c857602002820191906000526020600020905b8160009054906101000a900473ffffffffffffffffffffffffffffffffffffffff1673ffffffffffffffffffffffffffffffffffffffff168152602001906001019080831161077e575b505050505093508280548060200260200160405190810160405280929190818152602001828054801561081a57602002820191906000526020600020905b815481526020019060010190808311610806575b5050505050925081805480602002602001604051908101604052809291908181526020016000905b828210156108fe578382906000526020600020018054600181600116156101000203166002900480601f0160208091040260200160405190810160405280929190818152602001828054600181600116156101000203166002900480156108ea5780601f106108bf576101008083540402835291602001916108ea565b820191906000526020600020905b8154815290600101906020018083116108cd57829003601f168201915b505050505081526020019060010190610842565b50505050915080805480602002602001604051908101604052809291908181526020016000905b828210156109e1578382906000526020600020018054600181600116156101000203166002900480601f0160208091040260200160405190810160405280929190818152602001828054600181600116156101000203166002900480156109cd5780601f106109a2576101008083540402835291602001916109cd565b820191906000526020600020905b8154815290600101906020018083116109b057829003601f168201915b505050505081526020019060010190610925565b5050505090509450945094509450509193509193565b60006001905090565b60008160025410158015610a145750600082115b610a53576040517f08c379a0000000000000000000000000000000000000000000000000000000008152600401610a4a90614284565b60405180910390fd5b600060036000848152602001908152602001600020905080600b0160009054906101000a900460ff1615610a8b576002915050610bdf565b80600701544311610aa0576000915050610bdf565b80600801544311610ab5576001915050610bdf565b80600a01548160090154111580610ad65750610acf610707565b8160090154105b15610ae5576003915050610bdf565b600081600201541415610afc576004915050610bdf565b80600b0160019054906101000a900460ff1615610b1d576007915050610bdf565b610bc981600201546000809054906101000a900473ffffffffffffffffffffffffffffffffffffffff1673ffffffffffffffffffffffffffffffffffffffff1663c1a287e26040518163ffffffff1660e01b815260040160206040518083038186803b158015610b8c57600080fd5b505afa158015610ba0573d6000803e3d6000fd5b505050506040513d601f19601f82011682018060405250610bc49190810190612f64565b612273565b4210610bd9576006915050610bdf565b60059150505b919050565b6000610bef82610a00565b9050600780811115610bfd57fe5b816007811115610c0957fe5b1415610c4a576040517f08c379a0000000000000000000000000000000000000000000000000000000008152600401610c4190614404565b60405180910390fd5b6000600360008481526020019081526020016000209050610c696111e6565b600160009054906101000a900473ffffffffffffffffffffffffffffffffffffffff1673ffffffffffffffffffffffffffffffffffffffff1663782d6fe18360010160009054906101000a900473ffffffffffffffffffffffffffffffffffffffff16610cd74360016122c8565b6040518363ffffffff1660e01b8152600401610cf4929190613f64565b60206040518083038186803b158015610d0c57600080fd5b505afa158015610d20573d6000803e3d6000fd5b505050506040513d601f19601f82011682018060405250610d44919081019061307c565b6bffffffffffffffffffffffff1610610d92576040517f08c379a0000000000000000000000000000000000000000000000000000000008152600401610d8990614364565b60405180910390fd5b600181600b0160006101000a81548160ff02191690831515021790555060008090505b8160030180549050811015610eeb576000809054906101000a900473ffffffffffffffffffffffffffffffffffffffff1673ffffffffffffffffffffffffffffffffffffffff1663591fcdfe836003018381548110610e1057fe5b9060005260206000200160009054906101000a900473ffffffffffffffffffffffffffffffffffffffff16846004018481548110610e4a57fe5b9060005260206000200154856005018581548110610e6457fe5b90600052602060002001866006018681548110610e7d57fe5b9060005260206000200187600201546040518663ffffffff1660e01b8152600401610eac959493929190614033565b600060405180830381600087803b158015610ec657600080fd5b505af1158015610eda573d6000803e3d6000fd5b505050508080600101915050610db5565b507f789cf55be980739dad1d0699b93b58e806b51c9d96619bfa8fe0a28abaa7b30c83604051610f1b919061447f565b60405180910390a1505050565b6000610f354360016122c8565b905090565b6000604051610f4890613ef6565b60405180910390206040518060400160405280601681526020017f556e697377617020476f7665726e6f7220416c7068610000000000000000000081525080519060200120610f95612318565b30604051602001610fa99493929190614110565b6040516020818303038152906040528051906020012090506000604051610fcf90613f0b565b60405180910390208787604051602001610feb93929190614155565b60405160208183030381529060405280519060200120905060008282604051602001611018929190613ebf565b604051602081830303815290604052805190602001209050600060018288888860405160008152602001604052604051611055949392919061418c565b6020604051602081039080840390855afa158015611077573d6000803e3d6000fd5b505050602060405103519050600073ffffffffffffffffffffffffffffffffffffffff168173ffffffffffffffffffffffffffffffffffffffff1614156110f3576040517f08c379a00000000000000000000000000000000000000000000000000000000081526004016110ea906143c4565b60405180910390fd5b6110fe818a8a611fa4565b505050505050505050565b6000600160009054906101000a900473ffffffffffffffffffffffffffffffffffffffff1673ffffffffffffffffffffffffffffffffffffffff1663782d6fe1336111554360016122c8565b6040518363ffffffff1660e01b8152600401611172929190613f3b565b60206040518083038186803b15801561118a57600080fd5b505afa15801561119e573d6000803e3d6000fd5b505050506040513d601f19601f820116820180604052506111c2919081019061307c565b6bffffffffffffffffffffffff16905090565b600033905090565b6000600a905090565b60006a084595161401484a000000905090565b6000809054906101000a900473ffffffffffffffffffffffffffffffffffffffff1681565b60025481565b600061122e6111e6565b600160009054906101000a900473ffffffffffffffffffffffffffffffffffffffff1673ffffffffffffffffffffffffffffffffffffffff1663782d6fe1336112784360016122c8565b6040518363ffffffff1660e01b8152600401611295929190613f3b565b60206040518083038186803b1580156112ad57600080fd5b505afa1580156112c1573d6000803e3d6000fd5b505050506040513d601f19601f820116820180604052506112e5919081019061307c565b6bffffffffffffffffffffffff1611611333576040517f08c379a000000000000000000000000000000000000000000000000000000000815260040161132a906142c4565b60405180910390fd5b84518651148015611345575083518651145b8015611352575082518651145b611391576040517f08c379a000000000000000000000000000000000000000000000000000000000815260040161138890614344565b60405180910390fd5b6000865114156113d6576040517f08c379a00000000000000000000000000000000000000000000000000000000081526004016113cd906143a4565b60405180910390fd5b6113de6111dd565b86511115611421576040517f08c379a000000000000000000000000000000000000000000000000000000000815260040161141890614304565b60405180910390fd5b6000600460003373ffffffffffffffffffffffffffffffffffffffff1673ffffffffffffffffffffffffffffffffffffffff1681526020019081526020016000205490506000811461153057600061147882610a00565b90506001600781111561148757fe5b81600781111561149357fe5b14156114d4576040517f08c379a00000000000000000000000000000000000000000000000000000000081526004016114cb906143e4565b60405180910390fd5b600060078111156114e157fe5b8160078111156114ed57fe5b141561152e576040517f08c379a0000000000000000000000000000000000000000000000000000000008152600401611525906142e4565b60405180910390fd5b505b60006115434361153e6109f7565b612273565b9050600061155882611553610686565b612273565b90506002600081548092919060010191905055506115746124f9565b604051806101a0016040528060025481526020013373ffffffffffffffffffffffffffffffffffffffff168152602001600081526020018b81526020018a815260200189815260200188815260200184815260200183815260200160008152602001600081526020016000151581526020016000151581525090508060036000836000015181526020019081526020016000206000820151816000015560208201518160010160006101000a81548173ffffffffffffffffffffffffffffffffffffffff021916908373ffffffffffffffffffffffffffffffffffffffff16021790555060408201518160020155606082015181600301908051906020019061167e92919061257b565b50608082015181600401908051906020019061169b929190612605565b5060a08201518160050190805190602001906116b8929190612652565b5060c08201518160060190805190602001906116d59291906126b2565b5060e082015181600701556101008201518160080155610120820151816009015561014082015181600a015561016082015181600b0160006101000a81548160ff02191690831515021790555061018082015181600b0160016101000a81548160ff021916908315150217905550905050806000015160046000836020015173ffffffffffffffffffffffffffffffffffffffff1673ffffffffffffffffffffffffffffffffffffffff168152602001908152602001600020819055507f96fd03f916c5f6de6e5256075f3750ee2bfa179dd22efa21e89f883998dc3e16600160009054906101000a900473ffffffffffffffffffffffffffffffffffffffff1673ffffffffffffffffffffffffffffffffffffffff1663782d6fe1336117fd4360016122c8565b6040518363ffffffff1660e01b815260040161181a929190613f3b565b60206040518083038186803b15801561183257600080fd5b505afa158015611846573d6000803e3d6000fd5b505050506040513d601f19601f8201168201806040525061186a919081019061307c565b6118726111e6565b3360405161188293929190614600565b60405180910390a17f7d84a6263ae0d98d3329bd7b46bb4e8d6f98cd35a7adb45c274c8b7fd5ebd5e08160000151338c8c8c8c89898e6040516118cd9998979695949392919061449a565b60405180910390a1806000015194505050505095945050505050565b600460078111156118f657fe5b6118ff82610a00565b600781111561190a57fe5b1461194a576040517f08c379a000000000000000000000000000000000000000000000000000000000815260040161194190614244565b60405180910390fd5b60006003600083815260200190815260200160002090506000611a0b426000809054906101000a900473ffffffffffffffffffffffffffffffffffffffff1673ffffffffffffffffffffffffffffffffffffffff16636a42b8f86040518163ffffffff1660e01b815260040160206040518083038186803b1580156119ce57600080fd5b505afa1580156119e2573d6000803e3d6000fd5b505050506040513d601f19601f82011682018060405250611a069190810190612f64565b612273565b905060008090505b8260030180549050811015611bf057611be3836003018281548110611a3457fe5b9060005260206000200160009054906101000a900473ffffffffffffffffffffffffffffffffffffffff16846004018381548110611a6e57fe5b9060005260206000200154856005018481548110611a8857fe5b906000526020600020018054600181600116156101000203166002900480601f016020809104026020016040519081016040528092919081815260200182805460018160011615610100020316600290048015611b265780601f10611afb57610100808354040283529160200191611b26565b820191906000526020600020905b815481529060010190602001808311611b0957829003601f168201915b5050505050866006018581548110611b3a57fe5b906000526020600020018054600181600116156101000203166002900480601f016020809104026020016040519081016040528092919081815260200182805460018160011615610100020316600290048015611bd85780601f10611bad57610100808354040283529160200191611bd8565b820191906000526020600020905b815481529060010190602001808311611bbb57829003601f168201915b505050505086612325565b8080600101915050611a13565b508082600201819055507f9a2e42fd6722813d69113e7d0079d3d940171428df7373df9c7f7617cfda28928382604051611c2b9291906145d7565b60405180910390a1505050565b604051611c4490613f0b565b604051809103902081565b611c57612712565b60036000848152602001908152602001600020600c0160008373ffffffffffffffffffffffffffffffffffffffff1673ffffffffffffffffffffffffffffffffffffffff1681526020019081526020016000206040518060600160405290816000820160009054906101000a900460ff161515151581526020016000820160019054906101000a900460ff161515151581526020016000820160029054906101000a90046bffffffffffffffffffffffff166bffffffffffffffffffffffff166bffffffffffffffffffffffff1681525050905092915050565b600160009054906101000a900473ffffffffffffffffffffffffffffffffffffffff1681565b60056007811115611d6457fe5b611d6d82610a00565b6007811115611d7857fe5b14611db8576040517f08c379a0000000000000000000000000000000000000000000000000000000008152600401611daf90614264565b60405180910390fd5b6000600360008381526020019081526020016000209050600181600b0160016101000a81548160ff02191690831515021790555060008090505b8160030180549050811015611f68576000809054906101000a900473ffffffffffffffffffffffffffffffffffffffff1673ffffffffffffffffffffffffffffffffffffffff16630825f38f836004018381548110611e4d57fe5b9060005260206000200154846003018481548110611e6757fe5b9060005260206000200160009054906101000a900473ffffffffffffffffffffffffffffffffffffffff16856004018581548110611ea157fe5b9060005260206000200154866005018681548110611ebb57fe5b90600052602060002001876006018781548110611ed457fe5b9060005260206000200188600201546040518763ffffffff1660e01b8152600401611f03959493929190614033565b6000604051808303818588803b158015611f1c57600080fd5b505af1158015611f30573d6000803e3d6000fd5b50505050506040513d6000823e3d601f19601f82011682018060405250611f5a9190810190612efa565b508080600101915050611df2565b507f712ae1383f79ac853f8d882153778e0260ef8f03b504e2866e0593e04d2b291f82604051611f98919061447f565b60405180910390a15050565b60016007811115611fb157fe5b611fba83610a00565b6007811115611fc557fe5b14612005576040517f08c379a0000000000000000000000000000000000000000000000000000000008152600401611ffc90614424565b60405180910390fd5b6000600360008481526020019081526020016000209050600081600c0160008673ffffffffffffffffffffffffffffffffffffffff1673ffffffffffffffffffffffffffffffffffffffff1681526020019081526020016000209050600015158160000160009054906101000a900460ff161515146120b9576040517f08c379a00000000000000000000000000000000000000000000000000000000081526004016120b0906142a4565b60405180910390fd5b6000600160009054906101000a900473ffffffffffffffffffffffffffffffffffffffff1673ffffffffffffffffffffffffffffffffffffffff1663782d6fe18785600701546040518363ffffffff1660e01b815260040161211c929190613f64565b60206040518083038186803b15801561213457600080fd5b505afa158015612148573d6000803e3d6000fd5b505050506040513d601f19601f8201168201806040525061216c919081019061307c565b9050831561219d576121908360090154826bffffffffffffffffffffffff16612273565b83600901819055506121c2565b6121b983600a0154826bffffffffffffffffffffffff16612273565b83600a01819055505b60018260000160006101000a81548160ff021916908315150217905550838260000160016101000a81548160ff021916908315150217905550808260000160026101000a8154816bffffffffffffffffffffffff02191690836bffffffffffffffffffffffff1602179055507f877856338e13f63d0c36822ff0ef736b80934cd90574a3a5bc9262c39d217c46868686846040516122639493929190613f8d565b60405180910390a1505050505050565b6000808284019050838110156122be576040517f08c379a00000000000000000000000000000000000000000000000000000000081526004016122b590614324565b60405180910390fd5b8091505092915050565b60008282111561230d576040517f08c379a000000000000000000000000000000000000000000000000000000000815260040161230490614444565b60405180910390fd5b818303905092915050565b6000804690508091505090565b6000809054906101000a900473ffffffffffffffffffffffffffffffffffffffff1673ffffffffffffffffffffffffffffffffffffffff1663f2b06537868686868660405160200161237b959493929190613fd2565b604051602081830303815290604052805190602001206040518263ffffffff1660e01b81526004016123ad91906140f5565b60206040518083038186803b1580156123c557600080fd5b505afa1580156123d9573d6000803e3d6000fd5b505050506040513d601f19601f820116820180604052506123fd9190810190612ea8565b1561243d576040517f08c379a000000000000000000000000000000000000000000000000000000000815260040161243490614384565b60405180910390fd5b6000809054906101000a900473ffffffffffffffffffffffffffffffffffffffff1673ffffffffffffffffffffffffffffffffffffffff16633a66f90186868686866040518663ffffffff1660e01b815260040161249f959493929190613fd2565b602060405180830381600087803b1580156124b957600080fd5b505af11580156124cd573d6000803e3d6000fd5b505050506040513d601f19601f820116820180604052506124f19190810190612ed1565b505050505050565b604051806101a0016040528060008152602001600073ffffffffffffffffffffffffffffffffffffffff1681526020016000815260200160608152602001606081526020016060815260200160608152602001600081526020016000815260200160008152602001600081526020016000151581526020016000151581525090565b8280548282559060005260206000209081019282156125f4579160200282015b828111156125f35782518260006101000a81548173ffffffffffffffffffffffffffffffffffffffff021916908373ffffffffffffffffffffffffffffffffffffffff1602179055509160200191906001019061259b565b5b5090506126019190612745565b5090565b828054828255906000526020600020908101928215612641579160200282015b82811115612640578251825591602001919060010190612625565b5b50905061264e9190612788565b5090565b8280548282559060005260206000209081019282156126a1579160200282015b828111156126a05782518290805190602001906126909291906127ad565b5091602001919060010190612672565b5b5090506126ae919061282d565b5090565b828054828255906000526020600020908101928215612701579160200282015b828111156127005782518290805190602001906126f0929190612859565b50916020019190600101906126d2565b5b50905061270e91906128d9565b5090565b604051806060016040528060001515815260200160001515815260200160006bffffffffffffffffffffffff1681525090565b61278591905b8082111561278157600081816101000a81549073ffffffffffffffffffffffffffffffffffffffff02191690555060010161274b565b5090565b90565b6127aa91905b808211156127a657600081600090555060010161278e565b5090565b90565b828054600181600116156101000203166002900490600052602060002090601f016020900481019282601f106127ee57805160ff191683800117855561281c565b8280016001018555821561281c579182015b8281111561281b578251825591602001919060010190612800565b5b5090506128299190612788565b5090565b61285691905b8082111561285257600081816128499190612905565b50600101612833565b5090565b90565b828054600181600116156101000203166002900490600052602060002090601f016020900481019282601f1061289a57805160ff19168380011785556128c8565b828001600101855582156128c8579182015b828111156128c75782518255916020019190600101906128ac565b5b5090506128d59190612788565b5090565b61290291905b808211156128fe57600081816128f5919061294d565b506001016128df565b5090565b90565b50805460018160011615610100020316600290046000825580601f1061292b575061294a565b601f0160209004906000526020600020908101906129499190612788565b5b50565b50805460018160011615610100020316600290046000825580601f106129735750612992565b601f0160209004906000526020600020908101906129919190612788565b5b50565b6000813590506129a481614ad3565b92915050565b600082601f8301126129bb57600080fd5b81356129ce6129c982614664565b614637565b915081818352602084019350602081019050838560208402820111156129f357600080fd5b60005b83811015612a235781612a098882612995565b8452602084019350602083019250506001810190506129f6565b5050505092915050565b600082601f830112612a3e57600080fd5b8135612a51612a4c8261468c565b614637565b9150818183526020840193506020810190508360005b83811015612a975781358601612a7d8882612bec565b845260208401935060208301925050600181019050612a67565b5050505092915050565b600082601f830112612ab257600080fd5b8135612ac5612ac0826146b4565b614637565b9150818183526020840193506020810190508360005b83811015612b0b5781358601612af18882612c94565b845260208401935060208301925050600181019050612adb565b5050505092915050565b600082601f830112612b2657600080fd5b8135612b39612b34826146dc565b614637565b91508181835260208401935060208101905083856020840282011115612b5e57600080fd5b60005b83811015612b8e5781612b748882612d3c565b845260208401935060208301925050600181019050612b61565b5050505092915050565b600081359050612ba781614aea565b92915050565b600081519050612bbc81614aea565b92915050565b600081359050612bd181614b01565b92915050565b600081519050612be681614b01565b92915050565b600082601f830112612bfd57600080fd5b8135612c10612c0b82614704565b614637565b91508082526020830160208301858383011115612c2c57600080fd5b612c37838284614a69565b50505092915050565b600082601f830112612c5157600080fd5b8151612c64612c5f82614730565b614637565b91508082526020830160208301858383011115612c8057600080fd5b612c8b838284614a78565b50505092915050565b600082601f830112612ca557600080fd5b8135612cb8612cb38261475c565b614637565b91508082526020830160208301858383011115612cd457600080fd5b612cdf838284614a69565b50505092915050565b600082601f830112612cf957600080fd5b8135612d0c612d0782614788565b614637565b91508082526020830160208301858383011115612d2857600080fd5b612d33838284614a69565b50505092915050565b600081359050612d4b81614b18565b92915050565b600081519050612d6081614b18565b92915050565b600081359050612d7581614b2f565b92915050565b600081519050612d8a81614b46565b92915050565b600060208284031215612da257600080fd5b6000612db084828501612995565b91505092915050565b600080600080600060a08688031215612dd157600080fd5b600086013567ffffffffffffffff811115612deb57600080fd5b612df7888289016129aa565b955050602086013567ffffffffffffffff811115612e1457600080fd5b612e2088828901612b15565b945050604086013567ffffffffffffffff811115612e3d57600080fd5b612e4988828901612aa1565b935050606086013567ffffffffffffffff811115612e6657600080fd5b612e7288828901612a2d565b925050608086013567ffffffffffffffff811115612e8f57600080fd5b612e9b88828901612ce8565b9150509295509295909350565b600060208284031215612eba57600080fd5b6000612ec884828501612bad565b91505092915050565b600060208284031215612ee357600080fd5b6000612ef184828501612bd7565b91505092915050565b600060208284031215612f0c57600080fd5b600082015167ffffffffffffffff811115612f2657600080fd5b612f3284828501612c40565b91505092915050565b600060208284031215612f4d57600080fd5b6000612f5b84828501612d3c565b91505092915050565b600060208284031215612f7657600080fd5b6000612f8484828501612d51565b91505092915050565b60008060408385031215612fa057600080fd5b6000612fae85828601612d3c565b9250506020612fbf85828601612995565b9150509250929050565b60008060408385031215612fdc57600080fd5b6000612fea85828601612d3c565b9250506020612ffb85828601612b98565b9150509250929050565b600080600080600060a0868803121561301d57600080fd5b600061302b88828901612d3c565b955050602061303c88828901612b98565b945050604061304d88828901612d66565b935050606061305e88828901612bc2565b925050608061306f88828901612bc2565b9150509295509295909350565b60006020828403121561308e57600080fd5b600061309c84828501612d7b565b91505092915050565b60006130b1838361310c565b60208301905092915050565b60006130c9838361334d565b905092915050565b60006130dd838361347b565b905092915050565b60006130f18383613e74565b60208301905092915050565b613106816149c7565b82525050565b6131158161493d565b82525050565b6131248161493d565b82525050565b60006131358261481e565b61313f81856148aa565b935061314a836147b4565b8060005b8381101561317b57815161316288826130a5565b975061316d83614876565b92505060018101905061314e565b5085935050505092915050565b600061319382614829565b61319d81856148bb565b9350836020820285016131af856147c4565b8060005b858110156131eb57848403895281516131cc85826130bd565b94506131d783614883565b925060208a019950506001810190506131b3565b50829750879550505050505092915050565b600061320882614834565b61321281856148cc565b935083602082028501613224856147d4565b8060005b85811015613260578484038952815161324185826130d1565b945061324c83614890565b925060208a01995050600181019050613228565b50829750879550505050505092915050565b600061327d8261483f565b61328781856148dd565b9350613292836147e4565b8060005b838110156132c35781516132aa88826130e5565b97506132b58361489d565b925050600181019050613296565b5085935050505092915050565b6132d98161494f565b82525050565b6132e88161494f565b82525050565b6132f78161495b565b82525050565b61330e6133098261495b565b614aab565b82525050565b600061331f82614855565b61332981856148ff565b9350613339818560208601614a78565b61334281614ab5565b840191505092915050565b60006133588261484a565b61336281856148ee565b9350613372818560208601614a78565b61337b81614ab5565b840191505092915050565b6000815460018116600081146133a357600181146133c95761340d565b607f60028304166133b481876148ff565b955060ff19831686526020860193505061340d565b600282046133d781876148ff565b95506133e2856147f4565b60005b82811015613404578154818901526001820191506020810190506133e5565b80880195505050505b505092915050565b61341e816149d9565b82525050565b61342d816149fd565b82525050565b61343c81614a21565b82525050565b600061344d8261486b565b6134578185614921565b9350613467818560208601614a78565b61347081614ab5565b840191505092915050565b600061348682614860565b6134908185614910565b93506134a0818560208601614a78565b6134a981614ab5565b840191505092915050565b60006134bf82614860565b6134c98185614921565b93506134d9818560208601614a78565b6134e281614ab5565b840191505092915050565b60008154600181166000811461350a576001811461353057613574565b607f600283041661351b8187614921565b955060ff198316865260208601935050613574565b6002820461353e8187614921565b955061354985614809565b60005b8281101561356b5781548189015260018201915060208101905061354c565b80880195505050505b505092915050565b6000613589604483614921565b91507f476f7665726e6f72416c7068613a3a71756575653a2070726f706f73616c206360008301527f616e206f6e6c792062652071756575656420696620697420697320737563636560208301527f65646564000000000000000000000000000000000000000000000000000000006040830152606082019050919050565b6000613615604583614921565b91507f476f7665726e6f72416c7068613a3a657865637574653a2070726f706f73616c60008301527f2063616e206f6e6c79206265206578656375746564206966206974206973207160208301527f75657565640000000000000000000000000000000000000000000000000000006040830152606082019050919050565b60006136a1600283614932565b91507f19010000000000000000000000000000000000000000000000000000000000006000830152600282019050919050565b60006136e1602983614921565b91507f476f7665726e6f72416c7068613a3a73746174653a20696e76616c696420707260008301527f6f706f73616c20696400000000000000000000000000000000000000000000006020830152604082019050919050565b6000613747602d83614921565b91507f476f7665726e6f72416c7068613a3a5f63617374566f74653a20766f7465722060008301527f616c726561647920766f746564000000000000000000000000000000000000006020830152604082019050919050565b60006137ad604283614921565b91507f476f7665726e6f72416c7068613a3a70726f706f73653a2070726f706f73657260008301527f20766f7465732062656c6f772070726f706f73616c207468726573686f6c642060208301527f2d310000000000000000000000000000000000000000000000000000000000006040830152606082019050919050565b6000613839605983614921565b91507f476f7665726e6f72416c7068613a3a70726f706f73653a206f6e65206c69766560008301527f2070726f706f73616c207065722070726f706f7365722c20666f756e6420616e60208301527f20616c72656164792070656e64696e672070726f706f73616c000000000000006040830152606082019050919050565b60006138c5602883614921565b91507f476f7665726e6f72416c7068613a3a70726f706f73653a20746f6f206d616e7960008301527f20616374696f6e730000000000000000000000000000000000000000000000006020830152604082019050919050565b600061392b601183614921565b91507f6164646974696f6e206f766572666c6f770000000000000000000000000000006000830152602082019050919050565b600061396b604383614932565b91507f454950373132446f6d61696e28737472696e67206e616d652c75696e7432353660008301527f20636861696e49642c6164647265737320766572696679696e67436f6e74726160208301527f63742900000000000000000000000000000000000000000000000000000000006040830152604382019050919050565b60006139f7602783614932565b91507f42616c6c6f742875696e743235362070726f706f73616c49642c626f6f6c207360008301527f7570706f727429000000000000000000000000000000000000000000000000006020830152602782019050919050565b6000613a5d604483614921565b91507f476f7665726e6f72416c7068613a3a70726f706f73653a2070726f706f73616c60008301527f2066756e6374696f6e20696e666f726d6174696f6e206172697479206d69736d60208301527f61746368000000000000000000000000000000000000000000000000000000006040830152606082019050919050565b6000613ae9602f83614921565b91507f476f7665726e6f72416c7068613a3a63616e63656c3a2070726f706f7365722060008301527f61626f7665207468726573686f6c6400000000000000000000000000000000006020830152604082019050919050565b6000613b4f604483614921565b91507f476f7665726e6f72416c7068613a3a5f71756575654f725265766572743a207060008301527f726f706f73616c20616374696f6e20616c72656164792071756575656420617460208301527f20657461000000000000000000000000000000000000000000000000000000006040830152606082019050919050565b6000613bdb602c83614921565b91507f476f7665726e6f72416c7068613a3a70726f706f73653a206d7573742070726f60008301527f7669646520616374696f6e7300000000000000000000000000000000000000006020830152604082019050919050565b6000613c41602f83614921565b91507f476f7665726e6f72416c7068613a3a63617374566f746542795369673a20696e60008301527f76616c6964207369676e617475726500000000000000000000000000000000006020830152604082019050919050565b6000613ca7605883614921565b91507f476f7665726e6f72416c7068613a3a70726f706f73653a206f6e65206c69766560008301527f2070726f706f73616c207065722070726f706f7365722c20666f756e6420616e60208301527f20616c7265616479206163746976652070726f706f73616c00000000000000006040830152606082019050919050565b6000613d33603683614921565b91507f476f7665726e6f72416c7068613a3a63616e63656c3a2063616e6e6f7420636160008301527f6e63656c2065786563757465642070726f706f73616c000000000000000000006020830152604082019050919050565b6000613d99602a83614921565b91507f476f7665726e6f72416c7068613a3a5f63617374566f74653a20766f74696e6760008301527f20697320636c6f736564000000000000000000000000000000000000000000006020830152604082019050919050565b6000613dff601583614921565b91507f7375627472616374696f6e20756e646572666c6f7700000000000000000000006000830152602082019050919050565b606082016000820151613e4860008501826132d0565b506020820151613e5b60208501826132d0565b506040820151613e6e6040850182613eb0565b50505050565b613e7d81614998565b82525050565b613e8c81614998565b82525050565b613e9b816149a2565b82525050565b613eaa81614a57565b82525050565b613eb9816149af565b82525050565b6000613eca82613694565b9150613ed682856132fd565b602082019150613ee682846132fd565b6020820191508190509392505050565b6000613f018261395e565b9150819050919050565b6000613f16826139ea565b9150819050919050565b6000602082019050613f35600083018461311b565b92915050565b6000604082019050613f5060008301856130fd565b613f5d6020830184613e83565b9392505050565b6000604082019050613f79600083018561311b565b613f866020830184613e83565b9392505050565b6000608082019050613fa2600083018761311b565b613faf6020830186613e83565b613fbc60408301856132df565b613fc96060830184613ea1565b95945050505050565b600060a082019050613fe7600083018861311b565b613ff46020830187613e83565b81810360408301526140068186613442565b9050818103606083015261401a8185613314565b90506140296080830184613e83565b9695505050505050565b600060a082019050614048600083018861311b565b6140556020830187613e83565b818103604083015261406781866134ed565b9050818103606083015261407b8185613386565b905061408a6080830184613e83565b9695505050505050565b600060808201905081810360008301526140ae818761312a565b905081810360208301526140c28186613272565b905081810360408301526140d681856131fd565b905081810360608301526140ea8184613188565b905095945050505050565b600060208201905061410a60008301846132ee565b92915050565b600060808201905061412560008301876132ee565b61413260208301866132ee565b61413f6040830185613e83565b61414c606083018461311b565b95945050505050565b600060608201905061416a60008301866132ee565b6141776020830185613e83565b61418460408301846132df565b949350505050565b60006080820190506141a160008301876132ee565b6141ae6020830186613e92565b6141bb60408301856132ee565b6141c860608301846132ee565b95945050505050565b60006020820190506141e66000830184613415565b92915050565b60006020820190506142016000830184613424565b92915050565b600060208201905061421c6000830184613433565b92915050565b6000602082019050818103600083015261423c81846134b4565b905092915050565b6000602082019050818103600083015261425d8161357c565b9050919050565b6000602082019050818103600083015261427d81613608565b9050919050565b6000602082019050818103600083015261429d816136d4565b9050919050565b600060208201905081810360008301526142bd8161373a565b9050919050565b600060208201905081810360008301526142dd816137a0565b9050919050565b600060208201905081810360008301526142fd8161382c565b9050919050565b6000602082019050818103600083015261431d816138b8565b9050919050565b6000602082019050818103600083015261433d8161391e565b9050919050565b6000602082019050818103600083015261435d81613a50565b9050919050565b6000602082019050818103600083015261437d81613adc565b9050919050565b6000602082019050818103600083015261439d81613b42565b9050919050565b600060208201905081810360008301526143bd81613bce565b9050919050565b600060208201905081810360008301526143dd81613c34565b9050919050565b600060208201905081810360008301526143fd81613c9a565b9050919050565b6000602082019050818103600083015261441d81613d26565b9050919050565b6000602082019050818103600083015261443d81613d8c565b9050919050565b6000602082019050818103600083015261445d81613df2565b9050919050565b60006060820190506144796000830184613e32565b92915050565b60006020820190506144946000830184613e83565b92915050565b6000610120820190506144b0600083018c613e83565b6144bd602083018b6130fd565b81810360408301526144cf818a61312a565b905081810360608301526144e38189613272565b905081810360808301526144f781886131fd565b905081810360a083015261450b8187613188565b905061451a60c0830186613e83565b61452760e0830185613e83565b81810361010083015261453a8184613442565b90509a9950505050505050505050565b600061012082019050614560600083018c613e83565b61456d602083018b61311b565b61457a604083018a613e83565b6145876060830189613e83565b6145946080830188613e83565b6145a160a0830187613e83565b6145ae60c0830186613e83565b6145bb60e08301856132df565b6145c96101008301846132df565b9a9950505050505050505050565b60006040820190506145ec6000830185613e83565b6145f96020830184613e83565b9392505050565b60006060820190506146156000830186613ea1565b6146226020830185613e83565b61462f60408301846130fd565b949350505050565b6000604051905081810181811067ffffffffffffffff8211171561465a57600080fd5b8060405250919050565b600067ffffffffffffffff82111561467b57600080fd5b602082029050602081019050919050565b600067ffffffffffffffff8211156146a357600080fd5b602082029050602081019050919050565b600067ffffffffffffffff8211156146cb57600080fd5b602082029050602081019050919050565b600067ffffffffffffffff8211156146f357600080fd5b602082029050602081019050919050565b600067ffffffffffffffff82111561471b57600080fd5b601f19601f8301169050602081019050919050565b600067ffffffffffffffff82111561474757600080fd5b601f19601f8301169050602081019050919050565b600067ffffffffffffffff82111561477357600080fd5b601f19601f8301169050602081019050919050565b600067ffffffffffffffff82111561479f57600080fd5b601f19601f8301169050602081019050919050565b6000819050602082019050919050565b6000819050602082019050919050565b6000819050602082019050919050565b6000819050602082019050919050565b60008190508160005260206000209050919050565b60008190508160005260206000209050919050565b600081519050919050565b600081519050919050565b600081519050919050565b600081519050919050565b600081519050919050565b600081519050919050565b600081519050919050565b600081519050919050565b6000602082019050919050565b6000602082019050919050565b6000602082019050919050565b6000602082019050919050565b600082825260208201905092915050565b600082825260208201905092915050565b600082825260208201905092915050565b600082825260208201905092915050565b600082825260208201905092915050565b600082825260208201905092915050565b600082825260208201905092915050565b600082825260208201905092915050565b600081905092915050565b600061494882614978565b9050919050565b60008115159050919050565b6000819050919050565b600081905061497382614ac6565b919050565b600073ffffffffffffffffffffffffffffffffffffffff82169050919050565b6000819050919050565b600060ff82169050919050565b60006bffffffffffffffffffffffff82169050919050565b60006149d282614a33565b9050919050565b60006149e4826149eb565b9050919050565b60006149f682614978565b9050919050565b6000614a0882614a0f565b9050919050565b6000614a1a82614978565b9050919050565b6000614a2c82614965565b9050919050565b6000614a3e82614a45565b9050919050565b6000614a5082614978565b9050919050565b6000614a62826149af565b9050919050565b82818337600083830152505050565b60005b83811015614a96578082015181840152602081019050614a7b565b83811115614aa5576000848401525b50505050565b6000819050919050565b6000601f19601f8301169050919050565b60088110614ad057fe5b50565b614adc8161493d565b8114614ae757600080fd5b50565b614af38161494f565b8114614afe57600080fd5b50565b614b0a8161495b565b8114614b1557600080fd5b50565b614b2181614998565b8114614b2c57600080fd5b50565b614b38816149a2565b8114614b4357600080fd5b50565b614b4f816149af565b8114614b5a57600080fd5b5056fea365627a7a7231582077096a2d2d2488f8ae88a7cc7ffec3f9d6cedca65d83c41850fe030005ab54616c6578706572696d656e74616cf564736f6c63430005100040",
  "linkReferences": {},
  "deployedLinkReferences": {}
}